{
  "address": "0x82Fc1e35159995F8c226b4127ca0703898401aA4",
  "abi": [
    {
      "inputs": [
        {
          "internalType": "address",
          "name": "exampleExternalContractAddress",
          "type": "address"
        }
      ],
      "stateMutability": "nonpayable",
      "type": "constructor"
    },
    {
      "inputs": [],
      "name": "Staker_DeadLineHasPassedOrNotEnoughFunds",
      "type": "error"
    },
    {
      "inputs": [],
      "name": "Staker_NotFundsToWithdraw",
      "type": "error"
    },
    {
      "inputs": [],
      "name": "Staker_TransferFailed",
      "type": "error"
    },
    {
      "inputs": [],
      "name": "Staker_WithdrawNotOpen",
      "type": "error"
    },
    {
      "anonymous": false,
      "inputs": [
        {
          "indexed": false,
          "internalType": "address",
          "name": "",
          "type": "address"
        },
        {
          "indexed": false,
          "internalType": "uint256",
          "name": "",
          "type": "uint256"
        }
      ],
      "name": "Stake",
      "type": "event"
    },
    {
      "inputs": [
        {
          "internalType": "address",
          "name": "",
          "type": "address"
        }
      ],
      "name": "balances",
      "outputs": [
        {
          "internalType": "uint256",
          "name": "",
          "type": "uint256"
        }
      ],
      "stateMutability": "view",
      "type": "function"
    },
    {
      "inputs": [],
      "name": "deadline",
      "outputs": [
        {
          "internalType": "uint256",
          "name": "",
          "type": "uint256"
        }
      ],
      "stateMutability": "view",
      "type": "function"
    },
    {
      "inputs": [],
      "name": "exampleExternalContract",
      "outputs": [
        {
          "internalType": "contract ExampleExternalContract",
          "name": "",
          "type": "address"
        }
      ],
      "stateMutability": "view",
      "type": "function"
    },
    {
      "inputs": [],
      "name": "execute",
      "outputs": [],
      "stateMutability": "nonpayable",
      "type": "function"
    },
    {
      "inputs": [],
      "name": "openForWithdraw",
      "outputs": [
        {
          "internalType": "bool",
          "name": "",
          "type": "bool"
        }
      ],
      "stateMutability": "view",
      "type": "function"
    },
    {
      "inputs": [],
      "name": "stake",
      "outputs": [],
      "stateMutability": "payable",
      "type": "function"
    },
    {
      "inputs": [],
      "name": "threshold",
      "outputs": [
        {
          "internalType": "uint256",
          "name": "",
          "type": "uint256"
        }
      ],
      "stateMutability": "view",
      "type": "function"
    },
    {
      "inputs": [],
      "name": "timeLeft",
      "outputs": [
        {
          "internalType": "uint256",
          "name": "",
          "type": "uint256"
        }
      ],
      "stateMutability": "view",
      "type": "function"
    },
    {
      "inputs": [],
      "name": "withdraw",
      "outputs": [],
      "stateMutability": "payable",
      "type": "function"
    },
    {
      "stateMutability": "payable",
      "type": "receive"
    }
  ],
  "transactionHash": "0x70f26033bd269371e14d6c093db6cf1b5efafd07ec20e636252c20b72521f366",
  "args": [
    "0x3f343f858557AD74AE41ad245c4b2687962D1bd4"
  ],
  "numDeployments": 1,
  "solcInputHash": "cac6991ba21ef6d9424a153508caa306",
  "bytecode": "0x6080604052610011426203f48061009c565b6002556003805460ff1916905534801561002a57600080fd5b506040516107393803806107398339810160408190526100499161006e565b600080546001600160a01b0319166001600160a01b03929092169190911790556100c0565b60006020828403121561007f578081fd5b81516001600160a01b0381168114610095578182fd5b9392505050565b600082198211156100bb57634e487b7160e01b81526011600452602481fd5b500190565b61066a806100cf6000396000f3fe60806040526004361061008a5760003560e01c80633ccfd60b116100595780633ccfd60b1461011157806342cde4e81461011957806361461954146101355780639876a6431461014a5780639f75f2271461017457600080fd5b80631300a6d11461009e57806327e235e3146100c657806329dcb0cf146100f35780633a4b66f11461010957600080fd5b36610099576100976101ac565b005b600080fd5b3480156100aa57600080fd5b506100b3610281565b6040519081526020015b60405180910390f35b3480156100d257600080fd5b506100b36100e13660046105a1565b60016020526000908152604090205481565b3480156100ff57600080fd5b506100b360025481565b6100976101ac565b6100976102a5565b34801561012557600080fd5b506100b3670de0b6b3a764000081565b34801561014157600080fd5b5061009761043e565b34801561015657600080fd5b506003546101649060ff1681565b60405190151581526020016100bd565b34801561018057600080fd5b50600054610194906001600160a01b031681565b6040516001600160a01b0390911681526020016100bd565b60025442106101ce576040516303ff05b760e21b815260040160405180910390fd5b600034116102235760405162461bcd60e51b815260206004820152601c60248201527f76616c7565206d7573742062652067726561746572207468616e20300000000060448201526064015b60405180910390fd5b33600090815260016020526040812080543492906102429084906105ef565b9091555050604080513381523460208201527febedb8b3c678666e7f36970bc8f57abf6d8fa2e828c0da91ea5b75bf68ed101a910160405180910390a1565b600060025442106102925750600090565b426002546102a09190610607565b905090565b60008054906101000a90046001600160a01b03166001600160a01b0316639d9a7fe96040518163ffffffff1660e01b815260040160206040518083038186803b1580156102f157600080fd5b505afa158015610305573d6000803e3d6000fd5b505050506040513d601f19601f8201168201806040525081019061032991906105cf565b156103715760405162461bcd60e51b815260206004820152601860248201527714dd185ad95c88185b1c9958591e4818dbdb5c1b195d195960421b604482015260640161021a565b60035460ff16610394576040516313c8ef4f60e01b815260040160405180910390fd5b33600090815260016020526040902054806103c2576040516377a5561560e11b815260040160405180910390fd5b336000818152600160205260408082208290555190919083908381818185875af1925050503d8060008114610413576040519150601f19603f3d011682016040523d82523d6000602084013e610418565b606091505b505090508061043a57604051632f5fd84360e01b815260040160405180910390fd5b5050565b60008054906101000a90046001600160a01b03166001600160a01b0316639d9a7fe96040518163ffffffff1660e01b815260040160206040518083038186803b15801561048a57600080fd5b505afa15801561049e573d6000803e3d6000fd5b505050506040513d601f19601f820116820180604052508101906104c291906105cf565b1561050a5760405162461bcd60e51b815260206004820152601860248201527714dd185ad95c88185b1c9958591e4818dbdb5c1b195d195960421b604482015260640161021a565b60025442101580156105245750670de0b6b3a76400004710155b156105925760008054906101000a90046001600160a01b03166001600160a01b031663522e1177476040518263ffffffff1660e01b81526004016000604051808303818588803b15801561057757600080fd5b505af115801561058b573d6000803e3d6000fd5b5050505050565b6003805460ff19166001179055565b6000602082840312156105b2578081fd5b81356001600160a01b03811681146105c8578182fd5b9392505050565b6000602082840312156105e0578081fd5b815180151581146105c8578182fd5b600082198211156106025761060261061e565b500190565b6000828210156106195761061961061e565b500390565b634e487b7160e01b600052601160045260246000fdfea2646970667358221220a6ba280f959d71c57f91a1b0ef25fbe68d51597fb84234c1baffb70a8d84dd1b64736f6c63430008040033",
  "devdoc": {
    "kind": "dev",
    "methods": {},
    "version": 1
  },
  "userdoc": {
    "kind": "user",
    "methods": {},
    "version": 1
  },
  "storageLayout": {
    "storage": [
      {
        "astId": 27,
        "contract": "contracts/Staker.sol:Staker",
        "label": "exampleExternalContract",
        "offset": 0,
        "slot": "0",
        "type": "t_contract(ExampleExternalContract)12"
      },
      {
        "astId": 31,
        "contract": "contracts/Staker.sol:Staker",
        "label": "balances",
        "offset": 0,
        "slot": "1",
        "type": "t_mapping(t_address,t_uint256)"
      },
      {
        "astId": 40,
        "contract": "contracts/Staker.sol:Staker",
        "label": "deadline",
        "offset": 0,
        "slot": "2",
        "type": "t_uint256"
      },
      {
        "astId": 43,
        "contract": "contracts/Staker.sol:Staker",
        "label": "openForWithdraw",
        "offset": 0,
        "slot": "3",
        "type": "t_bool"
      }
    ],
    "types": {
      "t_address": {
        "encoding": "inplace",
        "label": "address",
        "numberOfBytes": "20"
      },
      "t_bool": {
        "encoding": "inplace",
        "label": "bool",
        "numberOfBytes": "1"
      },
      "t_contract(ExampleExternalContract)12": {
        "encoding": "inplace",
        "label": "contract ExampleExternalContract",
        "numberOfBytes": "20"
      },
      "t_mapping(t_address,t_uint256)": {
        "encoding": "mapping",
        "key": "t_address",
        "label": "mapping(address => uint256)",
        "numberOfBytes": "32",
        "value": "t_uint256"
      },
      "t_uint256": {
        "encoding": "inplace",
        "label": "uint256",
        "numberOfBytes": "32"
      }
    }
  }
}